{
  "_format": "hh-sol-artifact-1",
  "contractName": "CrowdFunding",
  "sourceName": "contracts/CrowdFunding.sol",
  "abi": [
    {
      "inputs": [
        {
          "internalType": "uint256",
          "name": "_cut",
          "type": "uint256"
        }
      ],
      "stateMutability": "nonpayable",
      "type": "constructor"
    },
    {
      "anonymous": false,
      "inputs": [],
      "name": "CutChanged",
      "type": "event"
    },
    {
      "anonymous": false,
      "inputs": [
        {
          "indexed": true,
          "internalType": "address",
          "name": "campaignOwnerAddress",
          "type": "address"
        },
        {
          "indexed": false,
          "internalType": "uint256",
          "name": "amount",
          "type": "uint256"
        }
      ],
      "name": "TransferredToCampaignOwner",
      "type": "event"
    },
    {
      "anonymous": false,
      "inputs": [
        {
          "indexed": true,
          "internalType": "address",
          "name": "ownerAddress",
          "type": "address"
        },
        {
          "indexed": false,
          "internalType": "uint256",
          "name": "amount",
          "type": "uint256"
        }
      ],
      "name": "TransferredToOwner",
      "type": "event"
    },
    {
      "inputs": [
        {
          "internalType": "uint256",
          "name": "",
          "type": "uint256"
        }
      ],
      "name": "campaigns",
      "outputs": [
        {
          "internalType": "address",
          "name": "owner",
          "type": "address"
        },
        {
          "internalType": "string",
          "name": "title",
          "type": "string"
        },
        {
          "internalType": "string",
          "name": "description",
          "type": "string"
        },
        {
          "internalType": "uint256",
          "name": "target",
          "type": "uint256"
        },
        {
          "internalType": "uint256",
          "name": "deadline",
          "type": "uint256"
        },
        {
          "internalType": "uint256",
          "name": "amountCollected",
          "type": "uint256"
        },
        {
          "internalType": "string",
          "name": "image",
          "type": "string"
        },
        {
          "internalType": "uint256",
          "name": "id",
          "type": "uint256"
        }
      ],
      "stateMutability": "view",
      "type": "function"
    },
    {
      "inputs": [
        {
          "internalType": "uint256",
          "name": "value",
          "type": "uint256"
        }
      ],
      "name": "changeCut",
      "outputs": [],
      "stateMutability": "nonpayable",
      "type": "function"
    },
    {
      "inputs": [
        {
          "internalType": "string",
          "name": "_title",
          "type": "string"
        },
        {
          "internalType": "string",
          "name": "_description",
          "type": "string"
        },
        {
          "internalType": "uint256",
          "name": "_target",
          "type": "uint256"
        },
        {
          "internalType": "uint256",
          "name": "_deadline",
          "type": "uint256"
        },
        {
          "internalType": "string",
          "name": "_image",
          "type": "string"
        }
      ],
      "name": "createCampaign",
      "outputs": [],
      "stateMutability": "nonpayable",
      "type": "function"
    },
    {
      "inputs": [
        {
          "internalType": "uint256",
          "name": "_id",
          "type": "uint256"
        }
      ],
      "name": "donateToCampaign",
      "outputs": [
        {
          "internalType": "bool",
          "name": "",
          "type": "bool"
        },
        {
          "internalType": "bool",
          "name": "",
          "type": "bool"
        }
      ],
      "stateMutability": "payable",
      "type": "function"
    },
    {
      "inputs": [],
      "name": "getCampaigns",
      "outputs": [
        {
          "components": [
            {
              "internalType": "address",
              "name": "owner",
              "type": "address"
            },
            {
              "internalType": "string",
              "name": "title",
              "type": "string"
            },
            {
              "internalType": "string",
              "name": "description",
              "type": "string"
            },
            {
              "internalType": "uint256",
              "name": "target",
              "type": "uint256"
            },
            {
              "internalType": "uint256",
              "name": "deadline",
              "type": "uint256"
            },
            {
              "internalType": "uint256",
              "name": "amountCollected",
              "type": "uint256"
            },
            {
              "internalType": "string",
              "name": "image",
              "type": "string"
            },
            {
              "internalType": "address[]",
              "name": "donators",
              "type": "address[]"
            },
            {
              "internalType": "uint256[]",
              "name": "donations",
              "type": "uint256[]"
            },
            {
              "internalType": "uint256",
              "name": "id",
              "type": "uint256"
            }
          ],
          "internalType": "struct CrowdFunding.Campaign[]",
          "name": "",
          "type": "tuple[]"
        }
      ],
      "stateMutability": "view",
      "type": "function"
    },
    {
      "inputs": [
        {
          "internalType": "uint256",
          "name": "_id",
          "type": "uint256"
        }
      ],
      "name": "getDonators",
      "outputs": [
        {
          "internalType": "address[]",
          "name": "",
          "type": "address[]"
        },
        {
          "internalType": "uint256[]",
          "name": "",
          "type": "uint256[]"
        }
      ],
      "stateMutability": "view",
      "type": "function"
    },
    {
      "inputs": [],
      "name": "numOfCampaigns",
      "outputs": [
        {
          "internalType": "uint256",
          "name": "",
          "type": "uint256"
        }
      ],
      "stateMutability": "view",
      "type": "function"
    },
    {
      "inputs": [],
      "name": "owner",
      "outputs": [
        {
          "internalType": "address",
          "name": "",
          "type": "address"
        }
      ],
      "stateMutability": "view",
      "type": "function"
    }
  ],
  "bytecode": "0x608060405260006003553480156200001657600080fd5b5060405162001f1638038062001f1683398181016040528101906200003c9190620000ca565b336000806101000a81548173ffffffffffffffffffffffffffffffffffffffff021916908373ffffffffffffffffffffffffffffffffffffffff1602179055508060018190555050620000fc565b600080fd5b6000819050919050565b620000a4816200008f565b8114620000b057600080fd5b50565b600081519050620000c48162000099565b92915050565b600060208284031215620000e357620000e26200008a565b5b6000620000f384828501620000b3565b91505092915050565b611e0a806200010c6000396000f3fe60806040526004361061007b5760003560e01c80638da5cb5b1161004e5780638da5cb5b1461015e578063a6b0363314610189578063ab892eba146101b4578063d4e3dd6f146101dd5761007b565b80630fa91fa914610080578063141961bc146100be5780633a69e1fc1461010257806342a4fda81461012d575b600080fd5b34801561008c57600080fd5b506100a760048036038101906100a29190610f2f565b610206565b6040516100b592919061110a565b60405180910390f35b3480156100ca57600080fd5b506100e560048036038101906100e09190610f2f565b610318565b6040516100f99897969594939291906111ef565b60405180910390f35b34801561010e57600080fd5b50610117610518565b6040516101249190611282565b60405180910390f35b61014760048036038101906101429190610f2f565b61051e565b6040516101559291906112b8565b60405180910390f35b34801561016a57600080fd5b50610173610862565b60405161018091906112e1565b60405180910390f35b34801561019557600080fd5b5061019e610886565b6040516101ab91906115dc565b60405180910390f35b3480156101c057600080fd5b506101db60048036038101906101d69190610f2f565b610c67565b005b3480156101e957600080fd5b5061020460048036038101906101ff9190611733565b610d2b565b005b6060806002600084815260200190815260200160002060070160026000858152602001908152602001600020600801818054806020026020016040519081016040528092919081815260200182805480156102b657602002820191906000526020600020905b8160009054906101000a900473ffffffffffffffffffffffffffffffffffffffff1673ffffffffffffffffffffffffffffffffffffffff168152602001906001019080831161026c575b505050505091508080548060200260200160405190810160405280929190818152602001828054801561030857602002820191906000526020600020905b8154815260200190600101908083116102f4575b5050505050905091509150915091565b60026020528060005260406000206000915090508060000160009054906101000a900473ffffffffffffffffffffffffffffffffffffffff169080600101805461036190611831565b80601f016020809104026020016040519081016040528092919081815260200182805461038d90611831565b80156103da5780601f106103af576101008083540402835291602001916103da565b820191906000526020600020905b8154815290600101906020018083116103bd57829003601f168201915b5050505050908060020180546103ef90611831565b80601f016020809104026020016040519081016040528092919081815260200182805461041b90611831565b80156104685780601f1061043d57610100808354040283529160200191610468565b820191906000526020600020905b81548152906001019060200180831161044b57829003601f168201915b50505050509080600301549080600401549080600501549080600601805461048f90611831565b80601f01602080910402602001604051908101604052809291908181526020018280546104bb90611831565b80156105085780601f106104dd57610100808354040283529160200191610508565b820191906000526020600020905b8154815290600101906020018083116104eb57829003601f168201915b5050505050908060090154905088565b60035481565b60008060003490506000610550606461054260015485610e5090919063ffffffff16565b610e6690919063ffffffff16565b905060008060009054906101000a900473ffffffffffffffffffffffffffffffffffffffff1673ffffffffffffffffffffffffffffffffffffffff168260405161059990611893565b60006040518083038185875af1925050503d80600081146105d6576040519150601f19603f3d011682016040523d82523d6000602084013e6105db565b606091505b5050905080156106545760008054906101000a900473ffffffffffffffffffffffffffffffffffffffff1673ffffffffffffffffffffffffffffffffffffffff167fccf781d909333c0cffc886f2f952e0e0e823fdf65d128a26b7dbd3ca0dc60d158360405161064b9190611282565b60405180910390a25b600060026000888152602001908152602001600020905080600701339080600181540180825580915050600190039060005260206000200160009091909190916101000a81548173ffffffffffffffffffffffffffffffffffffffff021916908373ffffffffffffffffffffffffffffffffffffffff1602179055508060080183856106e091906118d7565b908060018154018082558091505060019003906000526020600020016000909190919091505560008160000160009054906101000a900473ffffffffffffffffffffffffffffffffffffffff1673ffffffffffffffffffffffffffffffffffffffff16848661074f91906118d7565b60405161075b90611893565b60006040518083038185875af1925050503d8060008114610798576040519150601f19603f3d011682016040523d82523d6000602084013e61079d565b606091505b505090508015610825578160000160009054906101000a900473ffffffffffffffffffffffffffffffffffffffff1673ffffffffffffffffffffffffffffffffffffffff167fb76d66f8e1052d17aab5cfb827635bc79f3454e65c590a78cd7e03686569bc80858761080f91906118d7565b60405161081c9190611282565b60405180910390a25b801561085257838561083791906118d7565b82600501600082825461084a919061190b565b925050819055505b8281965096505050505050915091565b60008054906101000a900473ffffffffffffffffffffffffffffffffffffffff1681565b6060600060035467ffffffffffffffff8111156108a6576108a5611608565b5b6040519080825280602002602001820160405280156108df57816020015b6108cc610e7c565b8152602001906001900390816108c45790505b50905060005b600354811015610c5f57600060026000838152602001908152602001600020905080604051806101400160405290816000820160009054906101000a900473ffffffffffffffffffffffffffffffffffffffff1673ffffffffffffffffffffffffffffffffffffffff1673ffffffffffffffffffffffffffffffffffffffff16815260200160018201805461097990611831565b80601f01602080910402602001604051908101604052809291908181526020018280546109a590611831565b80156109f25780601f106109c7576101008083540402835291602001916109f2565b820191906000526020600020905b8154815290600101906020018083116109d557829003601f168201915b50505050508152602001600282018054610a0b90611831565b80601f0160208091040260200160405190810160405280929190818152602001828054610a3790611831565b8015610a845780601f10610a5957610100808354040283529160200191610a84565b820191906000526020600020905b815481529060010190602001808311610a6757829003601f168201915b50505050508152602001600382015481526020016004820154815260200160058201548152602001600682018054610abb90611831565b80601f0160208091040260200160405190810160405280929190818152602001828054610ae790611831565b8015610b345780601f10610b0957610100808354040283529160200191610b34565b820191906000526020600020905b815481529060010190602001808311610b1757829003601f168201915b5050505050815260200160078201805480602002602001604051908101604052809291908181526020018280548015610bc257602002820191906000526020600020905b8160009054906101000a900473ffffffffffffffffffffffffffffffffffffffff1673ffffffffffffffffffffffffffffffffffffffff1681526020019060010190808311610b78575b5050505050815260200160088201805480602002602001604051908101604052809291908181526020018280548015610c1a57602002820191906000526020600020905b815481526020019060010190808311610c06575b50505050508152602001600982015481525050838381518110610c4057610c3f61193f565b5b6020026020010181905250508080610c579061196e565b9150506108e5565b508091505090565b60008054906101000a900473ffffffffffffffffffffffffffffffffffffffff1673ffffffffffffffffffffffffffffffffffffffff163373ffffffffffffffffffffffffffffffffffffffff1614610cf5576040517f08c379a0000000000000000000000000000000000000000000000000000000008152600401610cec90611a02565b60405180910390fd5b806001819055507f2b3d45b3761bc28f26b9014d2fc23943600a12a2afc1a9350ac79939b676b02b60405160405180910390a150565b60006002600060035481526020019081526020016000209050610d596103e842610e5090919063ffffffff16565b8311610d9a576040517f08c379a0000000000000000000000000000000000000000000000000000000008152600401610d9190611a94565b60405180910390fd5b6003548160090181905550338160000160006101000a81548173ffffffffffffffffffffffffffffffffffffffff021916908373ffffffffffffffffffffffffffffffffffffffff16021790555085816001019081610df99190611c60565b5084816002019081610e0b9190611c60565b5083816003018190555082816004018190555081816006019081610e2f9190611c60565b5060036000815480929190610e439061196e565b9190505550505050505050565b60008183610e5e9190611d32565b905092915050565b60008183610e749190611da3565b905092915050565b604051806101400160405280600073ffffffffffffffffffffffffffffffffffffffff1681526020016060815260200160608152602001600081526020016000815260200160008152602001606081526020016060815260200160608152602001600081525090565b6000604051905090565b600080fd5b600080fd5b6000819050919050565b610f0c81610ef9565b8114610f1757600080fd5b50565b600081359050610f2981610f03565b92915050565b600060208284031215610f4557610f44610eef565b5b6000610f5384828501610f1a565b91505092915050565b600081519050919050565b600082825260208201905092915050565b6000819050602082019050919050565b600073ffffffffffffffffffffffffffffffffffffffff82169050919050565b6000610fb382610f88565b9050919050565b610fc381610fa8565b82525050565b6000610fd58383610fba565b60208301905092915050565b6000602082019050919050565b6000610ff982610f5c565b6110038185610f67565b935061100e83610f78565b8060005b8381101561103f5781516110268882610fc9565b975061103183610fe1565b925050600181019050611012565b5085935050505092915050565b600081519050919050565b600082825260208201905092915050565b6000819050602082019050919050565b61108181610ef9565b82525050565b60006110938383611078565b60208301905092915050565b6000602082019050919050565b60006110b78261104c565b6110c18185611057565b93506110cc83611068565b8060005b838110156110fd5781516110e48882611087565b97506110ef8361109f565b9250506001810190506110d0565b5085935050505092915050565b600060408201905081810360008301526111248185610fee565b9050818103602083015261113881846110ac565b90509392505050565b61114a81610fa8565b82525050565b600081519050919050565b600082825260208201905092915050565b60005b8381101561118a57808201518184015260208101905061116f565b60008484015250505050565b6000601f19601f8301169050919050565b60006111b282611150565b6111bc818561115b565b93506111cc81856020860161116c565b6111d581611196565b840191505092915050565b6111e981610ef9565b82525050565b600061010082019050611205600083018b611141565b8181036020830152611217818a6111a7565b9050818103604083015261122b81896111a7565b905061123a60608301886111e0565b61124760808301876111e0565b61125460a08301866111e0565b81810360c083015261126681856111a7565b905061127560e08301846111e0565b9998505050505050505050565b600060208201905061129760008301846111e0565b92915050565b60008115159050919050565b6112b28161129d565b82525050565b60006040820190506112cd60008301856112a9565b6112da60208301846112a9565b9392505050565b60006020820190506112f66000830184611141565b92915050565b600081519050919050565b600082825260208201905092915050565b6000819050602082019050919050565b600082825260208201905092915050565b600061134482611150565b61134e8185611328565b935061135e81856020860161116c565b61136781611196565b840191505092915050565b600082825260208201905092915050565b600061138e82610f5c565b6113988185611372565b93506113a383610f78565b8060005b838110156113d45781516113bb8882610fc9565b97506113c683610fe1565b9250506001810190506113a7565b5085935050505092915050565b600082825260208201905092915050565b60006113fd8261104c565b61140781856113e1565b935061141283611068565b8060005b8381101561144357815161142a8882611087565b97506114358361109f565b925050600181019050611416565b5085935050505092915050565b6000610140830160008301516114696000860182610fba565b50602083015184820360208601526114818282611339565b9150506040830151848203604086015261149b8282611339565b91505060608301516114b06060860182611078565b5060808301516114c36080860182611078565b5060a08301516114d660a0860182611078565b5060c083015184820360c08601526114ee8282611339565b91505060e083015184820360e08601526115088282611383565b91505061010083015184820361010086015261152482826113f2565b91505061012083015161153b610120860182611078565b508091505092915050565b60006115528383611450565b905092915050565b6000602082019050919050565b6000611572826112fc565b61157c8185611307565b93508360208202850161158e85611318565b8060005b858110156115ca57848403895281516115ab8582611546565b94506115b68361155a565b925060208a01995050600181019050611592565b50829750879550505050505092915050565b600060208201905081810360008301526115f68184611567565b905092915050565b600080fd5b600080fd5b7f4e487b7100000000000000000000000000000000000000000000000000000000600052604160045260246000fd5b61164082611196565b810181811067ffffffffffffffff8211171561165f5761165e611608565b5b80604052505050565b6000611672610ee5565b905061167e8282611637565b919050565b600067ffffffffffffffff82111561169e5761169d611608565b5b6116a782611196565b9050602081019050919050565b82818337600083830152505050565b60006116d66116d184611683565b611668565b9050828152602081018484840111156116f2576116f1611603565b5b6116fd8482856116b4565b509392505050565b600082601f83011261171a576117196115fe565b5b813561172a8482602086016116c3565b91505092915050565b600080600080600060a0868803121561174f5761174e610eef565b5b600086013567ffffffffffffffff81111561176d5761176c610ef4565b5b61177988828901611705565b955050602086013567ffffffffffffffff81111561179a57611799610ef4565b5b6117a688828901611705565b94505060406117b788828901610f1a565b93505060606117c888828901610f1a565b925050608086013567ffffffffffffffff8111156117e9576117e8610ef4565b5b6117f588828901611705565b9150509295509295909350565b7f4e487b7100000000000000000000000000000000000000000000000000000000600052602260045260246000fd5b6000600282049050600182168061184957607f821691505b60208210810361185c5761185b611802565b5b50919050565b600081905092915050565b50565b600061187d600083611862565b91506118888261186d565b600082019050919050565b600061189e82611870565b9150819050919050565b7f4e487b7100000000000000000000000000000000000000000000000000000000600052601160045260246000fd5b60006118e282610ef9565b91506118ed83610ef9565b9250828203905081811115611905576119046118a8565b5b92915050565b600061191682610ef9565b915061192183610ef9565b9250828201905080821115611939576119386118a8565b5b92915050565b7f4e487b7100000000000000000000000000000000000000000000000000000000600052603260045260246000fd5b600061197982610ef9565b91507fffffffffffffffffffffffffffffffffffffffffffffffffffffffffffffffff82036119ab576119aa6118a8565b5b600182019050919050565b7f446f6e2774206861766520657863657373000000000000000000000000000000600082015250565b60006119ec60118361115b565b91506119f7826119b6565b602082019050919050565b60006020820190508181036000830152611a1b816119df565b9050919050565b7f54686520646561646c696e652073686f756c642062652061206461746520696e60008201527f2074686520667574757265000000000000000000000000000000000000000000602082015250565b6000611a7e602b8361115b565b9150611a8982611a22565b604082019050919050565b60006020820190508181036000830152611aad81611a71565b9050919050565b60008190508160005260206000209050919050565b60006020601f8301049050919050565b600082821b905092915050565b600060088302611b167fffffffffffffffffffffffffffffffffffffffffffffffffffffffffffffffff82611ad9565b611b208683611ad9565b95508019841693508086168417925050509392505050565b6000819050919050565b6000611b5d611b58611b5384610ef9565b611b38565b610ef9565b9050919050565b6000819050919050565b611b7783611b42565b611b8b611b8382611b64565b848454611ae6565b825550505050565b600090565b611ba0611b93565b611bab818484611b6e565b505050565b5b81811015611bcf57611bc4600082611b98565b600181019050611bb1565b5050565b601f821115611c1457611be581611ab4565b611bee84611ac9565b81016020851015611bfd578190505b611c11611c0985611ac9565b830182611bb0565b50505b505050565b600082821c905092915050565b6000611c3760001984600802611c19565b1980831691505092915050565b6000611c508383611c26565b9150826002028217905092915050565b611c6982611150565b67ffffffffffffffff811115611c8257611c81611608565b5b611c8c8254611831565b611c97828285611bd3565b600060209050601f831160018114611cca5760008415611cb8578287015190505b611cc28582611c44565b865550611d2a565b601f198416611cd886611ab4565b60005b82811015611d0057848901518255600182019150602085019450602081019050611cdb565b86831015611d1d5784890151611d19601f891682611c26565b8355505b6001600288020188555050505b505050505050565b6000611d3d82610ef9565b9150611d4883610ef9565b9250828202611d5681610ef9565b91508282048414831517611d6d57611d6c6118a8565b5b5092915050565b7f4e487b7100000000000000000000000000000000000000000000000000000000600052601260045260246000fd5b6000611dae82610ef9565b9150611db983610ef9565b925082611dc957611dc8611d74565b5b82820490509291505056fea2646970667358221220e56e8c35053f3172772faa7777bcaf443789fcdb4a76b2e7e51df2ba4e2b050064736f6c63430008120033",
  "linkReferences": {},
  "deployedLinkReferences": {}
}